{
  "contractName": "Fakeproduct2",
  "abi": [
    {
      "inputs": [
        {
          "internalType": "address",
          "name": "_add",
          "type": "address"
        }
      ],
      "stateMutability": "payable",
      "type": "constructor",
      "payable": true
    },
    {
      "inputs": [
        {
          "internalType": "string",
          "name": "email",
          "type": "string"
        },
        {
          "internalType": "string",
          "name": "password",
          "type": "string"
        }
      ],
      "name": "loginuser",
      "outputs": [
        {
          "internalType": "bool",
          "name": "",
          "type": "bool"
        }
      ],
      "stateMutability": "view",
      "type": "function",
      "constant": true
    },
    {
      "inputs": [],
      "name": "getBalance",
      "outputs": [
        {
          "internalType": "uint256",
          "name": "",
          "type": "uint256"
        }
      ],
      "stateMutability": "view",
      "type": "function",
      "constant": true
    },
    {
      "inputs": [
        {
          "internalType": "string",
          "name": "_code1",
          "type": "string"
        }
      ],
      "name": "getproductdetails",
      "outputs": [
        {
          "internalType": "string",
          "name": "",
          "type": "string"
        },
        {
          "internalType": "string",
          "name": "",
          "type": "string"
        },
        {
          "internalType": "uint256",
          "name": "",
          "type": "uint256"
        },
        {
          "internalType": "uint256",
          "name": "",
          "type": "uint256"
        },
        {
          "internalType": "string",
          "name": "",
          "type": "string"
        },
        {
          "internalType": "address",
          "name": "",
          "type": "address"
        },
        {
          "internalType": "string",
          "name": "",
          "type": "string"
        }
      ],
      "stateMutability": "view",
      "type": "function",
      "constant": true
    },
    {
      "inputs": [
        {
          "internalType": "string",
          "name": "email",
          "type": "string"
        },
        {
          "internalType": "string",
          "name": "name",
          "type": "string"
        },
        {
          "internalType": "string",
          "name": "loc",
          "type": "string"
        },
        {
          "internalType": "string",
          "name": "password",
          "type": "string"
        }
      ],
      "name": "CreateRetailer",
      "outputs": [
        {
          "internalType": "uint256",
          "name": "",
          "type": "uint256"
        }
      ],
      "stateMutability": "payable",
      "type": "function",
      "payable": true
    },
    {
      "inputs": [
        {
          "internalType": "string",
          "name": "mail",
          "type": "string"
        }
      ],
      "name": "Getretailer",
      "outputs": [
        {
          "internalType": "string",
          "name": "",
          "type": "string"
        },
        {
          "internalType": "string",
          "name": "",
          "type": "string"
        }
      ],
      "stateMutability": "view",
      "type": "function",
      "constant": true
    },
    {
      "inputs": [],
      "name": "getcodes",
      "outputs": [
        {
          "internalType": "string[]",
          "name": "",
          "type": "string[]"
        }
      ],
      "stateMutability": "view",
      "type": "function",
      "constant": true
    },
    {
      "inputs": [],
      "name": "checkManufacturer",
      "outputs": [
        {
          "internalType": "bool",
          "name": "",
          "type": "bool"
        }
      ],
      "stateMutability": "view",
      "type": "function",
      "constant": true
    },
    {
      "inputs": [
        {
          "internalType": "string",
          "name": "_code",
          "type": "string"
        },
        {
          "internalType": "string",
          "name": "brand_name",
          "type": "string"
        },
        {
          "internalType": "string",
          "name": "model",
          "type": "string"
        },
        {
          "internalType": "string",
          "name": "desc",
          "type": "string"
        },
        {
          "internalType": "string",
          "name": "name",
          "type": "string"
        },
        {
          "internalType": "string",
          "name": "loc",
          "type": "string"
        },
        {
          "internalType": "uint256",
          "name": "status",
          "type": "uint256"
        },
        {
          "internalType": "uint256",
          "name": "price",
          "type": "uint256"
        }
      ],
      "name": "createManufacturer",
      "outputs": [
        {
          "internalType": "uint256",
          "name": "",
          "type": "uint256"
        }
      ],
      "stateMutability": "nonpayable",
      "type": "function"
    },
    {
      "inputs": [
        {
          "internalType": "string",
          "name": "_code1",
          "type": "string"
        },
        {
          "internalType": "string",
          "name": "mail",
          "type": "string"
        }
      ],
      "name": "changeownership",
      "outputs": [
        {
          "internalType": "uint256",
          "name": "",
          "type": "uint256"
        }
      ],
      "stateMutability": "nonpayable",
      "type": "function"
    },
    {
      "inputs": [
        {
          "internalType": "string",
          "name": "_code1",
          "type": "string"
        }
      ],
      "name": "issold",
      "outputs": [
        {
          "internalType": "bool",
          "name": "",
          "type": "bool"
        }
      ],
      "stateMutability": "view",
      "type": "function",
      "constant": true
    },
    {
      "inputs": [
        {
          "internalType": "string",
          "name": "_code1",
          "type": "string"
        },
        {
          "internalType": "string",
          "name": "mail",
          "type": "string"
        },
        {
          "internalType": "uint256",
          "name": "price",
          "type": "uint256"
        }
      ],
      "name": "sell",
      "outputs": [],
      "stateMutability": "payable",
      "type": "function",
      "payable": true
    },
    {
      "inputs": [
        {
          "internalType": "string",
          "name": "_code1",
          "type": "string"
        }
      ],
      "name": "getaccount",
      "outputs": [
        {
          "internalType": "address",
          "name": "",
          "type": "address"
        }
      ],
      "stateMutability": "view",
      "type": "function",
      "constant": true
    },
    {
      "inputs": [
        {
          "internalType": "string",
          "name": "_code1",
          "type": "string"
        }
      ],
      "name": "checkbalance",
      "outputs": [
        {
          "internalType": "bool",
          "name": "",
          "type": "bool"
        }
      ],
      "stateMutability": "view",
      "type": "function",
      "constant": true
    },
    {
      "inputs": [
        {
          "internalType": "string",
          "name": "_code1",
          "type": "string"
        }
      ],
      "name": "getCodeDetailsforowner",
      "outputs": [
        {
          "internalType": "string",
          "name": "",
          "type": "string"
        },
        {
          "internalType": "string",
          "name": "",
          "type": "string"
        },
        {
          "internalType": "string",
          "name": "",
          "type": "string"
        },
        {
          "internalType": "string",
          "name": "",
          "type": "string"
        },
        {
          "internalType": "string",
          "name": "",
          "type": "string"
        },
        {
          "internalType": "uint256",
          "name": "",
          "type": "uint256"
        },
        {
          "internalType": "uint256",
          "name": "",
          "type": "uint256"
        }
      ],
      "stateMutability": "view",
      "type": "function",
      "constant": true
    },
    {
      "inputs": [
        {
          "internalType": "string",
          "name": "_code1",
          "type": "string"
        }
      ],
      "name": "getCodeDetailsforretailers",
      "outputs": [
        {
          "internalType": "string",
          "name": "",
          "type": "string"
        },
        {
          "internalType": "string",
          "name": "",
          "type": "string"
        },
        {
          "internalType": "uint256",
          "name": "",
          "type": "uint256"
        }
      ],
      "stateMutability": "view",
      "type": "function",
      "constant": true
    },
    {
      "inputs": [
        {
          "internalType": "string",
          "name": "code2",
          "type": "string"
        }
      ],
      "name": "getretailerdetailsforthecode",
      "outputs": [
        {
          "internalType": "string",
          "name": "",
          "type": "string"
        },
        {
          "internalType": "string",
          "name": "",
          "type": "string"
        }
      ],
      "stateMutability": "view",
      "type": "function",
      "constant": true
    }
  ],
  "bytecode": "0x608060405260405162002a4638038062002a468339818101604052810190620000299190620000c8565b336000806101000a81548173ffffffffffffffffffffffffffffffffffffffff021916908373ffffffffffffffffffffffffffffffffffffffff16021790555080600360006101000a81548173ffffffffffffffffffffffffffffffffffffffff021916908373ffffffffffffffffffffffffffffffffffffffff1602179055505062000142565b600081519050620000c28162000128565b92915050565b600060208284031215620000db57600080fd5b6000620000eb84828501620000b1565b91505092915050565b6000620001018262000108565b9050919050565b600073ffffffffffffffffffffffffffffffffffffffff82169050919050565b6200013381620000f4565b81146200013f57600080fd5b50565b6128f480620001526000396000f3fe6080604052600436106100f35760003560e01c80637b0c00da1161008a578063b6dc188011610059578063b6dc188014610390578063d174c1f3146103cd578063efef49481461040b578063f80e21e214610449576100f3565b80637b0c00da146102bd5780637e8b15d1146102fa578063a60e977914610316578063aef94efb14610353576100f3565b806331e64fb4116100c657806331e64fb4146101dc57806343089c991461020c5780636ceaea301461024f57806376ef7e9714610292576100f3565b806306efc790146100f857806312065fe01461013557806330c189cc1461016057806331875a451461019d575b600080fd5b34801561010457600080fd5b5061011f600480360381019061011a9190611e91565b610474565b60405161012c9190612425565b60405180910390f35b34801561014157600080fd5b5061014a6104fe565b60405161015791906125d9565b60405180910390f35b34801561016c57600080fd5b5061018760048036038101906101829190611e50565b6105b0565b60405161019491906123bf565b60405180910390f35b3480156101a957600080fd5b506101c460048036038101906101bf9190611e50565b6105fb565b6040516101d393929190612509565b60405180910390f35b6101f660048036038101906101f19190611efd565b610789565b60405161020391906125d9565b60405180910390f35b34801561021857600080fd5b50610233600480360381019061022e9190611e50565b6108e6565b6040516102469796959493929190612477565b60405180910390f35b34801561025b57600080fd5b5061027660048036038101906102719190611e50565b610caf565b604051610289979695949392919061254e565b60405180910390f35b34801561029e57600080fd5b506102a76110a6565b6040516102b49190612425565b60405180910390f35b3480156102c957600080fd5b506102e460048036038101906102df9190611e50565b61110d565b6040516102f19190612425565b60405180910390f35b610314600480360381019061030f9190612102565b61114c565b005b34801561032257600080fd5b5061033d60048036038101906103389190611e91565b6112c7565b60405161034a91906125d9565b60405180910390f35b34801561035f57600080fd5b5061037a60048036038101906103759190611fc0565b6114f7565b60405161038791906125d9565b60405180910390f35b34801561039c57600080fd5b506103b760048036038101906103b29190611e50565b61174d565b6040516103c49190612425565b60405180910390f35b3480156103d957600080fd5b506103f460048036038101906103ef9190611e50565b611835565b604051610402929190612440565b60405180910390f35b34801561041757600080fd5b50610432600480360381019061042d9190611e50565b6119db565b604051610440929190612440565b60405180910390f35b34801561045557600080fd5b5061045e611b41565b60405161046b9190612403565b60405180910390f35b6000816040516020016104879190612391565b604051602081830303815290604052805190602001206005846040516104ad9190612391565b90815260200160405180910390206002016040516020016104ce91906123a8565b6040516020818303038152906040528051906020012014156104f357600190506104f8565b600090505b92915050565b6000600360009054906101000a900473ffffffffffffffffffffffffffffffffffffffff1673ffffffffffffffffffffffffffffffffffffffff166370a08231336040518263ffffffff1660e01b815260040161055b91906123bf565b60206040518083038186803b15801561057357600080fd5b505afa158015610587573d6000803e3d6000fd5b505050506040513d601f19601f820116820180604052508101906105ab9190612181565b905090565b60006004826040516105c29190612391565b908152602001604051809103902060080160009054906101000a900473ffffffffffffffffffffffffffffffffffffffff169050919050565b60608060006004846040516106109190612391565b90815260200160405180910390206003016004856040516106319190612391565b90815260200160405180910390206002016004866040516106529190612391565b90815260200160405180910390206007015482805461067090612777565b80601f016020809104026020016040519081016040528092919081815260200182805461069c90612777565b80156106e95780601f106106be576101008083540402835291602001916106e9565b820191906000526020600020905b8154815290600101906020018083116106cc57829003601f168201915b505050505092508180546106fc90612777565b80601f016020809104026020016040519081016040528092919081815260200182805461072890612777565b80156107755780601f1061074a57610100808354040283529160200191610775565b820191906000526020600020905b81548152906001019060200180831161075857829003601f168201915b505050505091509250925092509193909250565b6000610793611c1a565b848160000181905250838160200181905250828160400181905250806005876040516107bf9190612391565b908152602001604051809103902060008201518160000190805190602001906107e9929190611c3b565b506020820151816001019080519060200190610806929190611c3b565b506040820151816002019080519060200190610823929190611c3b565b50905050600360009054906101000a900473ffffffffffffffffffffffffffffffffffffffff1673ffffffffffffffffffffffffffffffffffffffff1663a9059cbb336103e86040518363ffffffff1660e01b81526004016108869291906123da565b602060405180830381600087803b1580156108a057600080fd5b505af11580156108b4573d6000803e3d6000fd5b505050506040513d601f19601f820116820180604052508101906108d89190611e27565b506001915050949350505050565b60608060608060606000806004886040516109019190612391565b90815260200160405180910390206003016004896040516109229190612391565b908152602001604051809103902060020160048a6040516109439190612391565b908152602001604051809103902060050160048b6040516109649190612391565b908152602001604051809103902060000160048c6040516109859190612391565b908152602001604051809103902060010160048d6040516109a69190612391565b90815260200160405180910390206006015460048e6040516109c89190612391565b9081526020016040518091039020600701548680546109e690612777565b80601f0160208091040260200160405190810160405280929190818152602001828054610a1290612777565b8015610a5f5780601f10610a3457610100808354040283529160200191610a5f565b820191906000526020600020905b815481529060010190602001808311610a4257829003601f168201915b50505050509650858054610a7290612777565b80601f0160208091040260200160405190810160405280929190818152602001828054610a9e90612777565b8015610aeb5780601f10610ac057610100808354040283529160200191610aeb565b820191906000526020600020905b815481529060010190602001808311610ace57829003601f168201915b50505050509550848054610afe90612777565b80601f0160208091040260200160405190810160405280929190818152602001828054610b2a90612777565b8015610b775780601f10610b4c57610100808354040283529160200191610b77565b820191906000526020600020905b815481529060010190602001808311610b5a57829003601f168201915b50505050509450838054610b8a90612777565b80601f0160208091040260200160405190810160405280929190818152602001828054610bb690612777565b8015610c035780601f10610bd857610100808354040283529160200191610c03565b820191906000526020600020905b815481529060010190602001808311610be657829003601f168201915b50505050509350828054610c1690612777565b80601f0160208091040260200160405190810160405280929190818152602001828054610c4290612777565b8015610c8f5780601f10610c6457610100808354040283529160200191610c8f565b820191906000526020600020905b815481529060010190602001808311610c7257829003601f168201915b505050505092509650965096509650965096509650919395979092949650565b60608060008060606000606060008054906101000a900473ffffffffffffffffffffffffffffffffffffffff1673ffffffffffffffffffffffffffffffffffffffff163373ffffffffffffffffffffffffffffffffffffffff1614610d1357600080fd5b600488604051610d239190612391565b9081526020016040518091039020600301600489604051610d449190612391565b908152602001604051809103902060050160048a604051610d659190612391565b90815260200160405180910390206006015460048b604051610d879190612391565b908152602001604051809103902060070154600560048d604051610dab9190612391565b9081526020016040518091039020600401604051610dc991906123a8565b908152602001604051809103902060000160048d604051610dea9190612391565b908152602001604051809103902060080160009054906101000a900473ffffffffffffffffffffffffffffffffffffffff16600560048f604051610e2e9190612391565b9081526020016040518091039020600401604051610e4c91906123a8565b9081526020016040518091039020600101868054610e6990612777565b80601f0160208091040260200160405190810160405280929190818152602001828054610e9590612777565b8015610ee25780601f10610eb757610100808354040283529160200191610ee2565b820191906000526020600020905b815481529060010190602001808311610ec557829003601f168201915b50505050509650858054610ef590612777565b80601f0160208091040260200160405190810160405280929190818152602001828054610f2190612777565b8015610f6e5780601f10610f4357610100808354040283529160200191610f6e565b820191906000526020600020905b815481529060010190602001808311610f5157829003601f168201915b50505050509550828054610f8190612777565b80601f0160208091040260200160405190810160405280929190818152602001828054610fad90612777565b8015610ffa5780601f10610fcf57610100808354040283529160200191610ffa565b820191906000526020600020905b815481529060010190602001808311610fdd57829003601f168201915b5050505050925080805461100d90612777565b80601f016020809104026020016040519081016040528092919081815260200182805461103990612777565b80156110865780601f1061105b57610100808354040283529160200191611086565b820191906000526020600020905b81548152906001019060200180831161106957829003601f168201915b505050505090509650965096509650965096509650919395979092949650565b60003373ffffffffffffffffffffffffffffffffffffffff1660008054906101000a900473ffffffffffffffffffffffffffffffffffffffff1673ffffffffffffffffffffffffffffffffffffffff161415611105576001905061110a565b600090505b90565b600060026004836040516111219190612391565b90815260200160405180910390206006015414156111425760019050611147565b600090505b919050565b8160405160200161115d9190612391565b604051602081830303815290604052805190602001206004846040516111839190612391565b90815260200160405180910390206004016040516020016111a491906123a8565b6040516020818303038152906040528051906020012014801561123357506004836040516111d29190612391565b908152602001604051809103902060080160009054906101000a900473ffffffffffffffffffffffffffffffffffffffff1673ffffffffffffffffffffffffffffffffffffffff163373ffffffffffffffffffffffffffffffffffffffff16145b156112c257806004846040516112499190612391565b90815260200160405180910390206007018190555060026004846040516112709190612391565b9081526020016040518091039020600601819055506001839080600181540180825580915050600190039060005260206000200160009091909190915090805190602001906112c0929190611c3b565b505b505050565b6000806004846040516112da9190612391565b9081526020016040518091039020600601541480611319575060026004846040516113059190612391565b908152602001604051809103902060060154145b156114f0573360048460405161132f9190612391565b908152602001604051809103902060080160006101000a81548173ffffffffffffffffffffffffffffffffffffffff021916908373ffffffffffffffffffffffffffffffffffffffff16021790555060016004846040516113909190612391565b908152602001604051809103902060060181905550816004846040516113b69190612391565b908152602001604051809103902060040190805190602001906113da929190611c3b565b5060005b6001805490508110156114e657836040516020016113fc9190612391565b604051602081830303815290604052805190602001206001828154811061144c577f4e487b7100000000000000000000000000000000000000000000000000000000600052603260045260246000fd5b9060005260206000200160405160200161146691906123a8565b6040516020818303038152906040528051906020012014156114d357600181815481106114bc577f4e487b7100000000000000000000000000000000000000000000000000000000600052603260045260246000fd5b9060005260206000200160006114d29190611cc1565b5b80806114de906127a9565b9150506113de565b50600190506114f1565b5b92915050565b60008060009054906101000a900473ffffffffffffffffffffffffffffffffffffffff1673ffffffffffffffffffffffffffffffffffffffff163373ffffffffffffffffffffffffffffffffffffffff161461155257600080fd5b60018990806001815401808255809150506001900390600052602060002001600090919091909150908051906020019061158d929190611c3b565b50611596611d01565b888160600181905250878160a00181905250868160400181905250858160000181905250848160200181905250838160c0018181525050828160e00181815250503381610100019073ffffffffffffffffffffffffffffffffffffffff16908173ffffffffffffffffffffffffffffffffffffffff16815250508060048b6040516116219190612391565b9081526020016040518091039020600082015181600001908051906020019061164b929190611c3b565b506020820151816001019080519060200190611668929190611c3b565b506040820151816002019080519060200190611685929190611c3b565b5060608201518160030190805190602001906116a2929190611c3b565b5060808201518160040190805190602001906116bf929190611c3b565b5060a08201518160050190805190602001906116dc929190611c3b565b5060c0820151816006015560e082015181600701556101008201518160080160006101000a81548173ffffffffffffffffffffffffffffffffffffffff021916908373ffffffffffffffffffffffffffffffffffffffff160217905550905050600191505098975050505050505050565b6000600360009054906101000a900473ffffffffffffffffffffffffffffffffffffffff1673ffffffffffffffffffffffffffffffffffffffff166370a08231336040518263ffffffff1660e01b81526004016117aa91906123bf565b60206040518083038186803b1580156117c257600080fd5b505afa1580156117d6573d6000803e3d6000fd5b505050506040513d601f19601f820116820180604052508101906117fa9190612181565b60048360405161180a9190612391565b908152602001604051809103902060070154111561182b5760009050611830565b600190505b919050565b606080600560048460405161184a9190612391565b908152602001604051809103902060040160405161186891906123a8565b9081526020016040518091039020600001600560048560405161188b9190612391565b90815260200160405180910390206004016040516118a991906123a8565b90815260200160405180910390206001018180546118c690612777565b80601f01602080910402602001604051908101604052809291908181526020018280546118f290612777565b801561193f5780601f106119145761010080835404028352916020019161193f565b820191906000526020600020905b81548152906001019060200180831161192257829003601f168201915b5050505050915080805461195290612777565b80601f016020809104026020016040519081016040528092919081815260200182805461197e90612777565b80156119cb5780601f106119a0576101008083540402835291602001916119cb565b820191906000526020600020905b8154815290600101906020018083116119ae57829003601f168201915b5050505050905091509150915091565b6060806005836040516119ee9190612391565b9081526020016040518091039020600001600584604051611a0f9190612391565b9081526020016040518091039020600101818054611a2c90612777565b80601f0160208091040260200160405190810160405280929190818152602001828054611a5890612777565b8015611aa55780601f10611a7a57610100808354040283529160200191611aa5565b820191906000526020600020905b815481529060010190602001808311611a8857829003601f168201915b50505050509150808054611ab890612777565b80601f0160208091040260200160405190810160405280929190818152602001828054611ae490612777565b8015611b315780601f10611b0657610100808354040283529160200191611b31565b820191906000526020600020905b815481529060010190602001808311611b1457829003601f168201915b5050505050905091509150915091565b60606001805480602002602001604051908101604052809291908181526020016000905b82821015611c11578382906000526020600020018054611b8490612777565b80601f0160208091040260200160405190810160405280929190818152602001828054611bb090612777565b8015611bfd5780601f10611bd257610100808354040283529160200191611bfd565b820191906000526020600020905b815481529060010190602001808311611be057829003601f168201915b505050505081526020019060010190611b65565b50505050905090565b60405180606001604052806060815260200160608152602001606081525090565b828054611c4790612777565b90600052602060002090601f016020900481019282611c695760008555611cb0565b82601f10611c8257805160ff1916838001178555611cb0565b82800160010185558215611cb0579182015b82811115611caf578251825591602001919060010190611c94565b5b509050611cbd9190611d63565b5090565b508054611ccd90612777565b6000825580601f10611cdf5750611cfe565b601f016020900490600052602060002090810190611cfd9190611d63565b5b50565b6040518061012001604052806060815260200160608152602001606081526020016060815260200160608152602001606081526020016000815260200160008152602001600073ffffffffffffffffffffffffffffffffffffffff1681525090565b5b80821115611d7c576000816000905550600101611d64565b5090565b6000611d93611d8e84612625565b6125f4565b905082815260208101848484011115611dab57600080fd5b611db6848285612735565b509392505050565b600081519050611dcd81612890565b92915050565b600082601f830112611de457600080fd5b8135611df4848260208601611d80565b91505092915050565b600081359050611e0c816128a7565b92915050565b600081519050611e21816128a7565b92915050565b600060208284031215611e3957600080fd5b6000611e4784828501611dbe565b91505092915050565b600060208284031215611e6257600080fd5b600082013567ffffffffffffffff811115611e7c57600080fd5b611e8884828501611dd3565b91505092915050565b60008060408385031215611ea457600080fd5b600083013567ffffffffffffffff811115611ebe57600080fd5b611eca85828601611dd3565b925050602083013567ffffffffffffffff811115611ee757600080fd5b611ef385828601611dd3565b9150509250929050565b60008060008060808587031215611f1357600080fd5b600085013567ffffffffffffffff811115611f2d57600080fd5b611f3987828801611dd3565b945050602085013567ffffffffffffffff811115611f5657600080fd5b611f6287828801611dd3565b935050604085013567ffffffffffffffff811115611f7f57600080fd5b611f8b87828801611dd3565b925050606085013567ffffffffffffffff811115611fa857600080fd5b611fb487828801611dd3565b91505092959194509250565b600080600080600080600080610100898b031215611fdd57600080fd5b600089013567ffffffffffffffff811115611ff757600080fd5b6120038b828c01611dd3565b985050602089013567ffffffffffffffff81111561202057600080fd5b61202c8b828c01611dd3565b975050604089013567ffffffffffffffff81111561204957600080fd5b6120558b828c01611dd3565b965050606089013567ffffffffffffffff81111561207257600080fd5b61207e8b828c01611dd3565b955050608089013567ffffffffffffffff81111561209b57600080fd5b6120a78b828c01611dd3565b94505060a089013567ffffffffffffffff8111156120c457600080fd5b6120d08b828c01611dd3565b93505060c06120e18b828c01611dfd565b92505060e06120f28b828c01611dfd565b9150509295985092959890939650565b60008060006060848603121561211757600080fd5b600084013567ffffffffffffffff81111561213157600080fd5b61213d86828701611dd3565b935050602084013567ffffffffffffffff81111561215a57600080fd5b61216686828701611dd3565b925050604061217786828701611dfd565b9150509250925092565b60006020828403121561219357600080fd5b60006121a184828501611e12565b91505092915050565b60006121b68383612260565b905092915050565b6121c7816126db565b82525050565b60006121d88261267a565b6121e2818561269d565b9350836020820285016121f485612655565b8060005b85811015612230578484038952815161221185826121aa565b945061221c83612690565b925060208a019950506001810190506121f8565b50829750879550505050505092915050565b61224b816126ed565b82525050565b61225a81612723565b82525050565b600061226b82612685565b61227581856126ae565b9350612285818560208601612744565b61228e8161287f565b840191505092915050565b60006122a482612685565b6122ae81856126bf565b93506122be818560208601612744565b6122c78161287f565b840191505092915050565b60006122dd82612685565b6122e781856126d0565b93506122f7818560208601612744565b80840191505092915050565b6000815461231081612777565b61231a81866126d0565b94506001821660008114612335576001811461234657612379565b60ff19831686528186019350612379565b61234f85612665565b60005b8381101561237157815481890152600182019150602081019050612352565b838801955050505b50505092915050565b61238b81612719565b82525050565b600061239d82846122d2565b915081905092915050565b60006123b48284612303565b915081905092915050565b60006020820190506123d460008301846121be565b92915050565b60006040820190506123ef60008301856121be565b6123fc6020830184612251565b9392505050565b6000602082019050818103600083015261241d81846121cd565b905092915050565b600060208201905061243a6000830184612242565b92915050565b6000604082019050818103600083015261245a8185612299565b9050818103602083015261246e8184612299565b90509392505050565b600060e0820190508181036000830152612491818a612299565b905081810360208301526124a58189612299565b905081810360408301526124b98188612299565b905081810360608301526124cd8187612299565b905081810360808301526124e18186612299565b90506124f060a0830185612382565b6124fd60c0830184612382565b98975050505050505050565b600060608201905081810360008301526125238186612299565b905081810360208301526125378185612299565b90506125466040830184612382565b949350505050565b600060e0820190508181036000830152612568818a612299565b9050818103602083015261257c8189612299565b905061258b6040830188612382565b6125986060830187612382565b81810360808301526125aa8186612299565b90506125b960a08301856121be565b81810360c08301526125cb8184612299565b905098975050505050505050565b60006020820190506125ee6000830184612382565b92915050565b6000604051905081810181811067ffffffffffffffff8211171561261b5761261a612850565b5b8060405250919050565b600067ffffffffffffffff8211156126405761263f612850565b5b601f19601f8301169050602081019050919050565b6000819050602082019050919050565b60008190508160005260206000209050919050565b600081519050919050565b600081519050919050565b6000602082019050919050565b600082825260208201905092915050565b600082825260208201905092915050565b600082825260208201905092915050565b600081905092915050565b60006126e6826126f9565b9050919050565b60008115159050919050565b600073ffffffffffffffffffffffffffffffffffffffff82169050919050565b6000819050919050565b600061272e82612719565b9050919050565b82818337600083830152505050565b60005b83811015612762578082015181840152602081019050612747565b83811115612771576000848401525b50505050565b6000600282049050600182168061278f57607f821691505b602082108114156127a3576127a2612821565b5b50919050565b60006127b482612719565b91507fffffffffffffffffffffffffffffffffffffffffffffffffffffffffffffffff8214156127e7576127e66127f2565b5b600182019050919050565b7f4e487b7100000000000000000000000000000000000000000000000000000000600052601160045260246000fd5b7f4e487b7100000000000000000000000000000000000000000000000000000000600052602260045260246000fd5b7f4e487b7100000000000000000000000000000000000000000000000000000000600052604160045260246000fd5b6000601f19601f8301169050919050565b612899816126ed565b81146128a457600080fd5b50565b6128b081612719565b81146128bb57600080fd5b5056fea2646970667358221220c653a674e241bf55ad9f6b697ebcb37367418abf78852a7b303449f916d7c6b664736f6c63430008000033",
  "immutableReferences": {},
  "source": "//SPDX-License-Identifier: UNLICENSED\r\npragma solidity ^0.8.0;\r\npragma experimental ABIEncoderV2;\r\n\r\nimport \"./Token.sol\";\r\ncontract Fakeproduct2{\r\n    address owner;\r\n    string []codes;\r\n    string []filtercodes;\r\n    Token token;\r\n\r\n    struct Retailer\r\n    {\r\n        string Retailer_name;\r\n        string Retailer_loc;\r\n        string password;\r\n    }\r\n\r\n    struct manufacturer\r\n    {\r\n        string manufacturer_name;\r\n        string manu_Loc;\r\n        string Desc;\r\n        string brand_name;\r\n        string retailer;\r\n        string model;\r\n        uint status;\r\n        uint price;\r\n        address account;\r\n    }\r\n   \r\n    modifier onlyOwner() \r\n    {\r\n        require(msg.sender == owner);\r\n        _;\r\n    }\r\n    constructor (address _add) public payable\r\n    {\r\n        owner = msg.sender;\r\n        token = Token(_add);\r\n    }  \r\n    mapping (string => manufacturer) manufacturer_data; //mapping of the code to Manufacturer\r\n  \r\n    mapping (string => Retailer) Retailer_data;  //mapping of Retailer mail id to retailer\r\n\r\n    function loginuser(string memory email,string memory password ) public view returns (bool)\r\n    {\r\n        if(keccak256(abi.encodePacked(Retailer_data[email].password)) == keccak256(abi.encodePacked(password)))\r\n        {\r\n           return true;\r\n        }\r\n        else \r\n            return false;\r\n    }\r\n    function getBalance() public view returns (uint256)\r\n    {\r\n        return token.balanceOf(msg.sender);\r\n    }\r\n    function getproductdetails(string  memory _code1) public onlyOwner view returns ( string memory,  string memory, uint,uint,string memory,address,string memory) \r\n       {\r\n        return (manufacturer_data[_code1].brand_name,manufacturer_data[_code1].model ,manufacturer_data[_code1].status,manufacturer_data[_code1].price,Retailer_data[manufacturer_data[_code1].retailer].Retailer_name,manufacturer_data[_code1].account,Retailer_data[manufacturer_data[_code1].retailer].Retailer_loc) ;\r\n       }\r\n    //Recording retailer\r\n    function CreateRetailer(string memory email,string memory name,string memory loc,string memory password)  public payable returns (uint)\r\n    {\r\n        Retailer memory retailer;\r\n        retailer.Retailer_name=name;\r\n        retailer.Retailer_loc=loc;\r\n        retailer.password=password;\r\n        Retailer_data[email]=retailer;\r\n        token.transfer(msg.sender, 1000);\r\n    \r\n    return uint256(1);\r\n    }\r\n\r\n    //Get retailer details\r\n    function Getretailer(string memory mail) public view returns (string memory, string memory)\r\n    {\r\n       \r\n        return (Retailer_data[mail].Retailer_name, Retailer_data[mail].Retailer_loc);\r\n    }\r\n    function getcodes()  public view returns (string[] memory)\r\n    { \r\n        return codes;\r\n    }\r\n\r\n    //This condition is to check only if manufacturers are creating the products\r\n    function checkManufacturer() public view returns(bool)  {\r\n       if (owner == msg.sender) {\r\n            return true;\r\n        } \r\n        else {\r\n            return false;\r\n        }\r\n    }\r\n    function  createManufacturer(string  memory _code, string memory brand_name,string memory  model,string memory  desc,string memory name,string memory  loc,uint status,uint price ) public onlyOwner returns (uint)\r\n    {\r\n        codes.push(_code);\r\n        manufacturer memory manufact;\r\n        manufact.brand_name = brand_name;\r\n        manufact.model = model;\r\n        manufact.Desc = desc;\r\n        manufact.manufacturer_name = name;\r\n        manufact.manu_Loc = loc;\r\n        manufact.status=status;\r\n        manufact.price=price;\r\n        manufact.account=msg.sender;\r\n        manufacturer_data[_code] = manufact;\r\n       \r\n        return 1;\r\n    }\r\n    function changeownership(string memory _code1,string memory mail) public returns (uint)\r\n    { \r\n        if( manufacturer_data[_code1].status==0||manufacturer_data[_code1].status==2)\r\n        {\r\n            manufacturer_data[_code1].account=msg.sender;\r\n            manufacturer_data[_code1].status=1; //someone had purchased it not elgible to sell\r\n            manufacturer_data[_code1].retailer=mail;\r\n            for(uint i=0; i< codes.length; i++) {\r\n                if(keccak256(abi.encodePacked(codes[i])) == keccak256(abi.encodePacked(_code1))) {\r\n                    delete codes[i];\r\n                }\r\n            }\r\n            return 1;\r\n        }\r\n    }\r\n\r\n    // function Buy(string memory _code1,string memory mail ) public payable returns (uint)\r\n    // {\r\n       \r\n    //     return 1;\r\n    // }\r\n\r\n    function issold(string memory _code1) public view returns(bool) \r\n    {\r\n        if(manufacturer_data[_code1].status==2)\r\n        {\r\n            return true;\r\n        }\r\n        else \r\n        {\r\n            return false;\r\n        }\r\n    }\r\n   \r\n   \r\n    function sell(string memory _code1,string memory mail,uint price ) public payable\r\n    {\r\n        //sold it\r\n        if(keccak256(abi.encodePacked(manufacturer_data[_code1].retailer)) ==keccak256(abi.encodePacked(mail)) && msg.sender== manufacturer_data[_code1].account)\r\n        {\r\n            manufacturer_data[_code1].price= price;\r\n            manufacturer_data[_code1].status=2;\r\n            codes.push(_code1);\r\n        }\r\n    }\r\n\r\n    function getaccount(string memory _code1) public view returns (address)\r\n    {\r\n       return (manufacturer_data[_code1].account);\r\n    }\r\n\r\n    function checkbalance(string memory _code1) public view returns (bool)\r\n    {\r\n        if(manufacturer_data[_code1].price >token.balanceOf(msg.sender)){\r\n           return false;\r\n       }\r\n       return true;  \r\n    }\r\n\r\n    //for reteriving the code details to display for retailers to purchase\r\n    function getCodeDetailsforowner(string  memory _code1) public  view returns ( string memory,  string memory, string memory,  string memory,  string memory,uint,uint) \r\n    {\r\n        return (manufacturer_data[_code1].brand_name,manufacturer_data[_code1].Desc, manufacturer_data[_code1].model ,manufacturer_data[_code1].manufacturer_name, manufacturer_data[_code1].manu_Loc,manufacturer_data[_code1].status,manufacturer_data[_code1].price) ;\r\n    }\r\n\r\n    function getCodeDetailsforretailers(string  memory _code1) public view returns ( string memory,  string memory,uint )\r\n    {\r\n        return (manufacturer_data[_code1].brand_name,manufacturer_data[_code1].Desc,manufacturer_data[_code1].price);\r\n    }\r\n\r\n    function getretailerdetailsforthecode(string memory code2) public view returns (string memory, string memory)  {\r\n        return (Retailer_data[manufacturer_data[code2].retailer].Retailer_name, Retailer_data[manufacturer_data[code2].retailer].Retailer_loc);\r\n    }\r\n}\r\n",
  "sourcePath": "C:\\Users\\raksh\\Downloads\\Fake_product (3)\\Fake_product\\Fake_product\\App\\fakeProduct-contract\\contracts\\Fakeproduct2.sol",
  "compiler": {
    "name": "solc",
    "version": "0.8.0+commit.c7dfd78e.Emscripten.clang"
  },
  "schemaVersion": "3.4.10",
  "updatedAt": "2022-12-07T17:02:51.175Z",
  "networkType": "ethereum",
  "devdoc": {
    "kind": "dev",
    "methods": {},
    "version": 1
  },
  "userdoc": {
    "kind": "user",
    "methods": {},
    "version": 1
  }
}