{
  "contractName": "Token",
  "abi": [
    {
      "inputs": [
        {
          "internalType": "uint256",
          "name": "intialsupply",
          "type": "uint256"
        }
      ],
      "stateMutability": "nonpayable",
      "type": "constructor"
    },
    {
      "anonymous": false,
      "inputs": [
        {
          "indexed": true,
          "internalType": "address",
          "name": "owner",
          "type": "address"
        },
        {
          "indexed": true,
          "internalType": "address",
          "name": "spender",
          "type": "address"
        },
        {
          "indexed": false,
          "internalType": "uint256",
          "name": "value",
          "type": "uint256"
        }
      ],
      "name": "Approval",
      "type": "event"
    },
    {
      "anonymous": false,
      "inputs": [
        {
          "indexed": true,
          "internalType": "address",
          "name": "from",
          "type": "address"
        },
        {
          "indexed": true,
          "internalType": "address",
          "name": "to",
          "type": "address"
        },
        {
          "indexed": false,
          "internalType": "uint256",
          "name": "value",
          "type": "uint256"
        }
      ],
      "name": "Transfer",
      "type": "event"
    },
    {
      "inputs": [
        {
          "internalType": "address",
          "name": "owner",
          "type": "address"
        },
        {
          "internalType": "address",
          "name": "spender",
          "type": "address"
        }
      ],
      "name": "allowance",
      "outputs": [
        {
          "internalType": "uint256",
          "name": "",
          "type": "uint256"
        }
      ],
      "stateMutability": "view",
      "type": "function",
      "constant": true
    },
    {
      "inputs": [
        {
          "internalType": "address",
          "name": "spender",
          "type": "address"
        },
        {
          "internalType": "uint256",
          "name": "amount",
          "type": "uint256"
        }
      ],
      "name": "approve",
      "outputs": [
        {
          "internalType": "bool",
          "name": "",
          "type": "bool"
        }
      ],
      "stateMutability": "nonpayable",
      "type": "function"
    },
    {
      "inputs": [
        {
          "internalType": "address",
          "name": "account",
          "type": "address"
        }
      ],
      "name": "balanceOf",
      "outputs": [
        {
          "internalType": "uint256",
          "name": "",
          "type": "uint256"
        }
      ],
      "stateMutability": "view",
      "type": "function",
      "constant": true
    },
    {
      "inputs": [],
      "name": "decimals",
      "outputs": [
        {
          "internalType": "uint8",
          "name": "",
          "type": "uint8"
        }
      ],
      "stateMutability": "view",
      "type": "function",
      "constant": true
    },
    {
      "inputs": [
        {
          "internalType": "address",
          "name": "spender",
          "type": "address"
        },
        {
          "internalType": "uint256",
          "name": "subtractedValue",
          "type": "uint256"
        }
      ],
      "name": "decreaseAllowance",
      "outputs": [
        {
          "internalType": "bool",
          "name": "",
          "type": "bool"
        }
      ],
      "stateMutability": "nonpayable",
      "type": "function"
    },
    {
      "inputs": [
        {
          "internalType": "address",
          "name": "spender",
          "type": "address"
        },
        {
          "internalType": "uint256",
          "name": "addedValue",
          "type": "uint256"
        }
      ],
      "name": "increaseAllowance",
      "outputs": [
        {
          "internalType": "bool",
          "name": "",
          "type": "bool"
        }
      ],
      "stateMutability": "nonpayable",
      "type": "function"
    },
    {
      "inputs": [],
      "name": "name",
      "outputs": [
        {
          "internalType": "string",
          "name": "",
          "type": "string"
        }
      ],
      "stateMutability": "view",
      "type": "function",
      "constant": true
    },
    {
      "inputs": [],
      "name": "symbol",
      "outputs": [
        {
          "internalType": "string",
          "name": "",
          "type": "string"
        }
      ],
      "stateMutability": "view",
      "type": "function",
      "constant": true
    },
    {
      "inputs": [],
      "name": "totalSupply",
      "outputs": [
        {
          "internalType": "uint256",
          "name": "",
          "type": "uint256"
        }
      ],
      "stateMutability": "view",
      "type": "function",
      "constant": true
    },
    {
      "inputs": [
        {
          "internalType": "address",
          "name": "to",
          "type": "address"
        },
        {
          "internalType": "uint256",
          "name": "amount",
          "type": "uint256"
        }
      ],
      "name": "transfer",
      "outputs": [
        {
          "internalType": "bool",
          "name": "",
          "type": "bool"
        }
      ],
      "stateMutability": "nonpayable",
      "type": "function"
    },
    {
      "inputs": [
        {
          "internalType": "address",
          "name": "from",
          "type": "address"
        },
        {
          "internalType": "address",
          "name": "to",
          "type": "address"
        },
        {
          "internalType": "uint256",
          "name": "amount",
          "type": "uint256"
        }
      ],
      "name": "transferFrom",
      "outputs": [
        {
          "internalType": "bool",
          "name": "",
          "type": "bool"
        }
      ],
      "stateMutability": "nonpayable",
      "type": "function"
    },
    {
      "inputs": [
        {
          "internalType": "address",
          "name": "_allowedMarketPlace",
          "type": "address"
        }
      ],
      "name": "setAllowedMarketPlace",
      "outputs": [],
      "stateMutability": "nonpayable",
      "type": "function"
    }
  ],
  "bytecode": "0x60806040523480156200001157600080fd5b5060405162001a2d38038062001a2d8339818101604052810190620000379190620003ae565b6040518060400160405280600381526020017f63757200000000000000000000000000000000000000000000000000000000008152506040518060400160405280600281526020017f61740000000000000000000000000000000000000000000000000000000000008152508160039080519060200190620000bb929190620002e7565b508060049080519060200190620000d4929190620002e7565b50505033600560006101000a81548173ffffffffffffffffffffffffffffffffffffffff021916908373ffffffffffffffffffffffffffffffffffffffff16021790555062000154336200012d6200015b60201b60201c565b600a6200013b919062000535565b8362000148919062000672565b6200016460201b60201c565b50620007a5565b60006012905090565b600073ffffffffffffffffffffffffffffffffffffffff168273ffffffffffffffffffffffffffffffffffffffff161415620001d7576040517f08c379a0000000000000000000000000000000000000000000000000000000008152600401620001ce906200042d565b60405180910390fd5b620001eb60008383620002dd60201b60201c565b8060026000828254620001ff91906200047d565b92505081905550806000808473ffffffffffffffffffffffffffffffffffffffff1673ffffffffffffffffffffffffffffffffffffffff16815260200190815260200160002060008282546200025691906200047d565b925050819055508173ffffffffffffffffffffffffffffffffffffffff16600073ffffffffffffffffffffffffffffffffffffffff167fddf252ad1be2c89b69c2b068fc378daa952ba7f163c4a11628f55a4df523b3ef83604051620002bd91906200044f565b60405180910390a3620002d960008383620002e260201b60201c565b5050565b505050565b505050565b828054620002f590620006ea565b90600052602060002090601f01602090048101928262000319576000855562000365565b82601f106200033457805160ff191683800117855562000365565b8280016001018555821562000365579182015b828111156200036457825182559160200191906001019062000347565b5b50905062000374919062000378565b5090565b5b808211156200039357600081600090555060010162000379565b5090565b600081519050620003a8816200078b565b92915050565b600060208284031215620003c157600080fd5b6000620003d18482850162000397565b91505092915050565b6000620003e9601f836200046c565b91507f45524332303a206d696e7420746f20746865207a65726f2061646472657373006000830152602082019050919050565b6200042781620006d3565b82525050565b600060208201905081810360008301526200044881620003da565b9050919050565b60006020820190506200046660008301846200041c565b92915050565b600082825260208201905092915050565b60006200048a82620006d3565b91506200049783620006d3565b9250827fffffffffffffffffffffffffffffffffffffffffffffffffffffffffffffffff03821115620004cf57620004ce62000720565b5b828201905092915050565b6000808291508390505b60018511156200052c5780860481111562000504576200050362000720565b5b6001851615620005145780820291505b808102905062000524856200077e565b9450620004e4565b94509492505050565b60006200054282620006d3565b91506200054f83620006dd565b92506200057e7fffffffffffffffffffffffffffffffffffffffffffffffffffffffffffffffff848462000586565b905092915050565b6000826200059857600190506200066b565b81620005a857600090506200066b565b8160018114620005c15760028114620005cc5762000602565b60019150506200066b565b60ff841115620005e157620005e062000720565b5b8360020a915084821115620005fb57620005fa62000720565b5b506200066b565b5060208310610133831016604e8410600b84101617156200063c5782820a90508381111562000636576200063562000720565b5b6200066b565b6200064b8484846001620004da565b9250905081840481111562000665576200066462000720565b5b81810290505b9392505050565b60006200067f82620006d3565b91506200068c83620006d3565b9250817fffffffffffffffffffffffffffffffffffffffffffffffffffffffffffffffff0483118215151615620006c857620006c762000720565b5b828202905092915050565b6000819050919050565b600060ff82169050919050565b600060028204905060018216806200070357607f821691505b602082108114156200071a57620007196200074f565b5b50919050565b7f4e487b7100000000000000000000000000000000000000000000000000000000600052601160045260246000fd5b7f4e487b7100000000000000000000000000000000000000000000000000000000600052602260045260246000fd5b60008160011c9050919050565b6200079681620006d3565b8114620007a257600080fd5b50565b61127880620007b56000396000f3fe608060405234801561001057600080fd5b50600436106100b45760003560e01c806366eb3efb1161007157806366eb3efb146101a357806370a08231146101bf57806395d89b41146101ef578063a457c2d71461020d578063a9059cbb1461023d578063dd62ed3e1461026d576100b4565b806306fdde03146100b9578063095ea7b3146100d757806318160ddd1461010757806323b872dd14610125578063313ce567146101555780633950935114610173575b600080fd5b6100c161029d565b6040516100ce9190610f41565b60405180910390f35b6100f160048036038101906100ec9190610be0565b61032f565b6040516100fe9190610f26565b60405180910390f35b61010f610352565b60405161011c9190611043565b60405180910390f35b61013f600480360381019061013a9190610b91565b61035c565b60405161014c9190610f26565b60405180910390f35b61015d61038b565b60405161016a919061105e565b60405180910390f35b61018d60048036038101906101889190610be0565b610394565b60405161019a9190610f26565b60405180910390f35b6101bd60048036038101906101b89190610b2c565b6103cb565b005b6101d960048036038101906101d49190610b2c565b61041d565b6040516101e69190611043565b60405180910390f35b6101f7610465565b6040516102049190610f41565b60405180910390f35b61022760048036038101906102229190610be0565b6104f7565b6040516102349190610f26565b60405180910390f35b61025760048036038101906102529190610be0565b61056e565b6040516102649190610f26565b60405180910390f35b61028760048036038101906102829190610b55565b610591565b6040516102949190611043565b60405180910390f35b6060600380546102ac90611173565b80601f01602080910402602001604051908101604052809291908181526020018280546102d890611173565b80156103255780601f106102fa57610100808354040283529160200191610325565b820191906000526020600020905b81548152906001019060200180831161030857829003601f168201915b5050505050905090565b60008061033a610618565b9050610347818585610620565b600191505092915050565b6000600254905090565b600080610367610618565b90506103748582856107eb565b61037f858585610877565b60019150509392505050565b60006012905090565b60008061039f610618565b90506103c08185856103b18589610591565b6103bb9190611095565b610620565b600191505092915050565b80600660006101000a81548173ffffffffffffffffffffffffffffffffffffffff021916908373ffffffffffffffffffffffffffffffffffffffff16021790555061041981620186a061056e565b5050565b60008060008373ffffffffffffffffffffffffffffffffffffffff1673ffffffffffffffffffffffffffffffffffffffff168152602001908152602001600020549050919050565b60606004805461047490611173565b80601f01602080910402602001604051908101604052809291908181526020018280546104a090611173565b80156104ed5780601f106104c2576101008083540402835291602001916104ed565b820191906000526020600020905b8154815290600101906020018083116104d057829003601f168201915b5050505050905090565b600080610502610618565b905060006105108286610591565b905083811015610555576040517f08c379a000000000000000000000000000000000000000000000000000000000815260040161054c90611023565b60405180910390fd5b6105628286868403610620565b60019250505092915050565b600080610579610618565b9050610586818585610877565b600191505092915050565b6000600160008473ffffffffffffffffffffffffffffffffffffffff1673ffffffffffffffffffffffffffffffffffffffff16815260200190815260200160002060008373ffffffffffffffffffffffffffffffffffffffff1673ffffffffffffffffffffffffffffffffffffffff16815260200190815260200160002054905092915050565b600033905090565b600073ffffffffffffffffffffffffffffffffffffffff168373ffffffffffffffffffffffffffffffffffffffff161415610690576040517f08c379a000000000000000000000000000000000000000000000000000000000815260040161068790611003565b60405180910390fd5b600073ffffffffffffffffffffffffffffffffffffffff168273ffffffffffffffffffffffffffffffffffffffff161415610700576040517f08c379a00000000000000000000000000000000000000000000000000000000081526004016106f790610f83565b60405180910390fd5b80600160008573ffffffffffffffffffffffffffffffffffffffff1673ffffffffffffffffffffffffffffffffffffffff16815260200190815260200160002060008473ffffffffffffffffffffffffffffffffffffffff1673ffffffffffffffffffffffffffffffffffffffff168152602001908152602001600020819055508173ffffffffffffffffffffffffffffffffffffffff168373ffffffffffffffffffffffffffffffffffffffff167f8c5be1e5ebec7d5bd14f71427d1e84f3dd0314c0f7b2291e5b200ac8c7c3b925836040516107de9190611043565b60405180910390a3505050565b60006107f78484610591565b90507fffffffffffffffffffffffffffffffffffffffffffffffffffffffffffffffff81146108715781811015610863576040517f08c379a000000000000000000000000000000000000000000000000000000000815260040161085a90610fa3565b60405180910390fd5b6108708484848403610620565b5b50505050565b600073ffffffffffffffffffffffffffffffffffffffff168373ffffffffffffffffffffffffffffffffffffffff1614156108e7576040517f08c379a00000000000000000000000000000000000000000000000000000000081526004016108de90610fe3565b60405180910390fd5b600073ffffffffffffffffffffffffffffffffffffffff168273ffffffffffffffffffffffffffffffffffffffff161415610957576040517f08c379a000000000000000000000000000000000000000000000000000000000815260040161094e90610f63565b60405180910390fd5b610962838383610af8565b60008060008573ffffffffffffffffffffffffffffffffffffffff1673ffffffffffffffffffffffffffffffffffffffff168152602001908152602001600020549050818110156109e8576040517f08c379a00000000000000000000000000000000000000000000000000000000081526004016109df90610fc3565b60405180910390fd5b8181036000808673ffffffffffffffffffffffffffffffffffffffff1673ffffffffffffffffffffffffffffffffffffffff16815260200190815260200160002081905550816000808573ffffffffffffffffffffffffffffffffffffffff1673ffffffffffffffffffffffffffffffffffffffff1681526020019081526020016000206000828254610a7b9190611095565b925050819055508273ffffffffffffffffffffffffffffffffffffffff168473ffffffffffffffffffffffffffffffffffffffff167fddf252ad1be2c89b69c2b068fc378daa952ba7f163c4a11628f55a4df523b3ef84604051610adf9190611043565b60405180910390a3610af2848484610afd565b50505050565b505050565b505050565b600081359050610b1181611214565b92915050565b600081359050610b268161122b565b92915050565b600060208284031215610b3e57600080fd5b6000610b4c84828501610b02565b91505092915050565b60008060408385031215610b6857600080fd5b6000610b7685828601610b02565b9250506020610b8785828601610b02565b9150509250929050565b600080600060608486031215610ba657600080fd5b6000610bb486828701610b02565b9350506020610bc586828701610b02565b9250506040610bd686828701610b17565b9150509250925092565b60008060408385031215610bf357600080fd5b6000610c0185828601610b02565b9250506020610c1285828601610b17565b9150509250929050565b610c25816110fd565b82525050565b6000610c3682611079565b610c408185611084565b9350610c50818560208601611140565b610c5981611203565b840191505092915050565b6000610c71602383611084565b91507f45524332303a207472616e7366657220746f20746865207a65726f206164647260008301527f65737300000000000000000000000000000000000000000000000000000000006020830152604082019050919050565b6000610cd7602283611084565b91507f45524332303a20617070726f766520746f20746865207a65726f20616464726560008301527f73730000000000000000000000000000000000000000000000000000000000006020830152604082019050919050565b6000610d3d601d83611084565b91507f45524332303a20696e73756666696369656e7420616c6c6f77616e63650000006000830152602082019050919050565b6000610d7d602683611084565b91507f45524332303a207472616e7366657220616d6f756e742065786365656473206260008301527f616c616e636500000000000000000000000000000000000000000000000000006020830152604082019050919050565b6000610de3602583611084565b91507f45524332303a207472616e736665722066726f6d20746865207a65726f20616460008301527f64726573730000000000000000000000000000000000000000000000000000006020830152604082019050919050565b6000610e49602483611084565b91507f45524332303a20617070726f76652066726f6d20746865207a65726f2061646460008301527f72657373000000000000000000000000000000000000000000000000000000006020830152604082019050919050565b6000610eaf602583611084565b91507f45524332303a2064656372656173656420616c6c6f77616e63652062656c6f7760008301527f207a65726f0000000000000000000000000000000000000000000000000000006020830152604082019050919050565b610f1181611129565b82525050565b610f2081611133565b82525050565b6000602082019050610f3b6000830184610c1c565b92915050565b60006020820190508181036000830152610f5b8184610c2b565b905092915050565b60006020820190508181036000830152610f7c81610c64565b9050919050565b60006020820190508181036000830152610f9c81610cca565b9050919050565b60006020820190508181036000830152610fbc81610d30565b9050919050565b60006020820190508181036000830152610fdc81610d70565b9050919050565b60006020820190508181036000830152610ffc81610dd6565b9050919050565b6000602082019050818103600083015261101c81610e3c565b9050919050565b6000602082019050818103600083015261103c81610ea2565b9050919050565b60006020820190506110586000830184610f08565b92915050565b60006020820190506110736000830184610f17565b92915050565b600081519050919050565b600082825260208201905092915050565b60006110a082611129565b91506110ab83611129565b9250827fffffffffffffffffffffffffffffffffffffffffffffffffffffffffffffffff038211156110e0576110df6111a5565b5b828201905092915050565b60006110f682611109565b9050919050565b60008115159050919050565b600073ffffffffffffffffffffffffffffffffffffffff82169050919050565b6000819050919050565b600060ff82169050919050565b60005b8381101561115e578082015181840152602081019050611143565b8381111561116d576000848401525b50505050565b6000600282049050600182168061118b57607f821691505b6020821081141561119f5761119e6111d4565b5b50919050565b7f4e487b7100000000000000000000000000000000000000000000000000000000600052601160045260246000fd5b7f4e487b7100000000000000000000000000000000000000000000000000000000600052602260045260246000fd5b6000601f19601f8301169050919050565b61121d816110eb565b811461122857600080fd5b50565b61123481611129565b811461123f57600080fd5b5056fea264697066735822122014330b5a6e4136fdc5e726c273c5b219884e9dcbca19acf6af5516d162bfec7e64736f6c63430008000033",
  "immutableReferences": {},
  "source": "//SPDX-License-Identifier: UNLICENSED\r\npragma solidity ^0.8.0;\r\nimport \"openzeppelin-solidity/contracts/token/ERC20/ERC20.sol\";\r\n\r\ncontract Token is ERC20{\r\n     address creater;\r\n     address allowedMarketPlace;\r\n    \r\n    constructor(uint intialsupply ) ERC20('cur', 'at') {\r\n       creater = msg.sender;\r\n      _mint(msg.sender, intialsupply * (10 ** decimals()));\r\n    }\r\n    //function approve(address spender ,uint256 amount) public virtual override  returns (bool)\r\n    //{\r\n      //_approve(spender,allowedMarketPlace,amount);\r\n      //return true;\r\n    //}\r\n    function setAllowedMarketPlace(address _allowedMarketPlace) public {\r\n        allowedMarketPlace = _allowedMarketPlace;\r\n        transfer(_allowedMarketPlace, 100000);\r\n    }\r\n}",
  "sourcePath": "C:\\Users\\raksh\\Downloads\\Fake_product (3)\\Fake_product\\Fake_product\\App\\fakeProduct-contract\\contracts\\Token.sol",
  "compiler": {
    "name": "solc",
    "version": "0.8.0+commit.c7dfd78e.Emscripten.clang"
  },
  "schemaVersion": "3.4.10",
  "updatedAt": "2022-12-07T17:02:51.188Z",
  "networkType": "ethereum",
  "devdoc": {
    "kind": "dev",
    "methods": {
      "allowance(address,address)": {
        "details": "See {IERC20-allowance}."
      },
      "approve(address,uint256)": {
        "details": "See {IERC20-approve}. NOTE: If `amount` is the maximum `uint256`, the allowance is not updated on `transferFrom`. This is semantically equivalent to an infinite approval. Requirements: - `spender` cannot be the zero address."
      },
      "balanceOf(address)": {
        "details": "See {IERC20-balanceOf}."
      },
      "decimals()": {
        "details": "Returns the number of decimals used to get its user representation. For example, if `decimals` equals `2`, a balance of `505` tokens should be displayed to a user as `5.05` (`505 / 10 ** 2`). Tokens usually opt for a value of 18, imitating the relationship between Ether and Wei. This is the value {ERC20} uses, unless this function is overridden; NOTE: This information is only used for _display_ purposes: it in no way affects any of the arithmetic of the contract, including {IERC20-balanceOf} and {IERC20-transfer}."
      },
      "decreaseAllowance(address,uint256)": {
        "details": "Atomically decreases the allowance granted to `spender` by the caller. This is an alternative to {approve} that can be used as a mitigation for problems described in {IERC20-approve}. Emits an {Approval} event indicating the updated allowance. Requirements: - `spender` cannot be the zero address. - `spender` must have allowance for the caller of at least `subtractedValue`."
      },
      "increaseAllowance(address,uint256)": {
        "details": "Atomically increases the allowance granted to `spender` by the caller. This is an alternative to {approve} that can be used as a mitigation for problems described in {IERC20-approve}. Emits an {Approval} event indicating the updated allowance. Requirements: - `spender` cannot be the zero address."
      },
      "name()": {
        "details": "Returns the name of the token."
      },
      "symbol()": {
        "details": "Returns the symbol of the token, usually a shorter version of the name."
      },
      "totalSupply()": {
        "details": "See {IERC20-totalSupply}."
      },
      "transfer(address,uint256)": {
        "details": "See {IERC20-transfer}. Requirements: - `to` cannot be the zero address. - the caller must have a balance of at least `amount`."
      },
      "transferFrom(address,address,uint256)": {
        "details": "See {IERC20-transferFrom}. Emits an {Approval} event indicating the updated allowance. This is not required by the EIP. See the note at the beginning of {ERC20}. NOTE: Does not update the allowance if the current allowance is the maximum `uint256`. Requirements: - `from` and `to` cannot be the zero address. - `from` must have a balance of at least `amount`. - the caller must have allowance for ``from``'s tokens of at least `amount`."
      }
    },
    "version": 1
  },
  "userdoc": {
    "kind": "user",
    "methods": {},
    "version": 1
  }
}